S01700005472616E736D6974746572204543552E7372656373
S11300000C9443000C9460000C9460000C94600009
S11300100C941B050C9442050C9460000C94600035
S11300200C9460000C94F4040C94A6040C94CD0479
S11300300C9460000C9460000C9460000C946000BC
S11300400C9460000C9460000C9460000C946000AC
S11300500C946000D503DF03E9037F04F3037F04FA
S1130060FD03070411041B0430043A0444044E0441
S1130070580462046C047604B905800585058A0574
S11300808F059405A60511241FBECFE5D8E0DEBF79
S1130090CDBF10E0A0E6B0E0ECEDFBE002C00590BF
S11300A00D92AE38B107D9F720E0AEE8B0E001C058
S11300B01D92A839B207E1F70E9469050C94EC057A
S11300C00C94000080E00E94DA0281E00E94DA02CF
S11300D0089582E00E94460283E00E948E0284E03A
S11300E00E94460285E00E948E02089583E00E94E9
S11300F0460282E00E948E0285E00E94460284E06D
S11301000E948E02089560E00E94FB02089561E05F
S11301100E94FB02089580E00E94830080E00E9418
S11301208700089590E0FC01EE0FFF1FEE0FFF1F04
S1130130E80FF91FE05AFF4F8081813021F130F040
S11301408230F1F1833009F458C00895828181111D
S11301500DC02AB381E090E0018002C0880F991F8E
S11301600A94E2F7809582238ABB08954AB321E07A
S113017030E0C901018002C0880F991F0A94E2F798
S1130180842B8ABB0895828181110DC027B381E03D
S113019090E0018002C0880F991F0A94E2F78095CD
S11301A0822387BB089547B321E030E0C901018071
S11301B002C0880F991F0A94E2F7842B87BB089525
S11301C0828181110DC024B381E090E0018002C0DE
S11301D0880F991F0A94E2F78095822384BB0895BF
S11301E044B321E030E0C901018002C0880F991FA7
S11301F00A94E2F7842B84BB0895828181110EC096
S113020041B321E030E0C901018002C0880F991F89
S11302100A94E2F78095842381BB089541B321E0D9
S113022030E0C901018002C0880F991F0A94E2F7E7
S1130230842B81BB089590E0FC01EE0FFF1FEE0FAD
S1130240FF1F8E0F9F1FFC01E05AFF4F80818130FA
S113025019F130F08230E1F1833009F455C008958A
S1130260613069F44BB321E030E0C901018002C080
S1130270880F991F0A94E2F7842B8BBB08952BB344
S113028081E090E0018002C0880F991F0A94E2F790
S1130290809582238BBB0895613069F448B321E0D3
S11302A030E0C901018002C0880F991F0A94E2F767
S11302B0842B88BB089528B381E090E0018002C0BC
S11302C0880F991F0A94E2F78095822388BB0895CA
S11302D0613069F445B321E030E0C901018002C016
S11302E0880F991F0A94E2F7842B85BB089525B3E0
S11302F081E090E0018002C0880F991F0A94E2F720
S11303008095822385BB0895613069F442B321E06E
S113031030E0C901018002C0880F991F0A94E2F7F6
S1130320842B82BB089522B381E090E0018002C057
S1130330880F991F0A94E2F78095822382BB08955F
S113034090E0FC01EE0FFF1FEE0FFF1FE80FF91FF7
S1130350E05AFF4F8081813021F130F08230F1F199
S1130360833009F458C008958481813069F44BB313
S113037021E030E0C901018002C0880F991F0A946E
S1130380E2F7842B8BBB08952BB381E090E00180CE
S113039002C0880F991F0A94E2F7809582238BBBD1
S11303A008958481813069F448B321E030E0C901C3
S11303B0018002C0880F991F0A94E2F7842B88BB3E
S11303C0089528B381E090E0018002C0880F991F4E
S11303D00A94E2F78095822388BB08958481813052
S11303E069F445B321E030E0C901018002C0880FFF
S11303F0991F0A94E2F7842B85BB089525B381E005
S113040090E0018002C0880F991F0A94E2F780955A
S1130410822385BB08958481813069F442B321E04D
S113042030E0C901018002C0880F991F0A94E2F7E5
S1130430842B82BB089522B381E090E0018002C046
S1130440880F991F0A94E2F78095822382BB08954E
S11304501F93CF93DF93C3E6D0E010E0812F0E9477
S11304609200FE0131978081813029F46881812FC7
S11304700E941B0103C0812F0E94A0011F5F2596CB
S1130480193061F7DF91CF911F91089590E0FC013D
S1130490EE0FFF1FEE0FFF1F8E0F9F1FFC01E05A90
S11304A0FF4F8081813099F028F08230E9F0833069
S11304B041F108954BB321E030E0C901018002C04D
S11304C0880F991F0A94E2F7842B8BBB089548B3D5
S11304D021E030E0C901018002C0880F991F0A940D
S11304E0E2F7842B88BB089545B321E030E0C901CD
S11304F0018002C0880F991F0A94E2F7842B85BB00
S1130500089542B321E030E0C901018002C0880FA0
S1130510991F0A94E2F7842B82BB089590E0FC01B2
S1130520EE0FFF1FEE0FFF1F8E0F9F1FFC01E05AFF
S1130530FF4F80818130A1F028F08230F9F08330C0
S113054059F108954BB321E030E0C901018002C0A4
S1130550880F991F0A94E2F7809584238BBB089532
S113056048B321E030E0C901018002C0880F991F1F
S11305700A94E2F78095842388BB089545B321E06B
S113058030E0C901018002C0880F991F0A94E2F784
S11305908095842385BB089542B321E030E0C901EE
S11305A0018002C0880F991F0A94E2F78095842382
S11305B082BB0895882319F0813079F0089580E092
S11305C00E949D0421E041E063E080E00E948004F9
S11305D060E080E00E949404089581E00E949D04FC
S11305E021E041E063E081E00E94800460E081E07A
S11305F00E9494040895262F3FEF839FC001112485
S113060064E670E00E94BE05222319F0213019F03F
S113061008956CBF089563BD0895882359F081300F
S113062071F4BC9ABD9ABF9A6E9A6C9A689A6F9A42
S11306306D9A0895BE9A6E9A6C986F9A6D9A089501
S1130640779BFECF8FB10895882319F0813029F16B
S11306500895613069F028F0623089F06330B1F0B8
S1130660089583B78F7B83BF83B7877F83BF089544
S113067083B78F7B83BF83B7886083BF089583B7B5
S1130680806483BF83B7877F83BF089583B7806403
S113069083BF83B7886083BF0895613069F028F011
S11306A0623089F06330B1F0089585B58F7B85BDE4
S11306B085B5877F85BD089585B58F7B85BD85B557
S11306C0886085BD089585B5806485BD85B5877FBF
S11306D085BD089585B5806485BD85B5886085BD73
S11306E00895882319F0813041F10895613069F04B
S11306F028F0623089F06330B1F0089583B78F7EBB
S113070083BF83B78F7D83BF089583B78F7E83BFF5
S113071083B7806283BF089583B7806183BF83B743
S1130720806283BF089503B606FC2DC083B7806141
S113073083BF83B78F7D83BF0895613069F028F04C
S1130740623089F06330B1F0089585B58F7E85BD40
S113075085B58F7D85BD089585B58F7E85BD85B5AD
S1130760806285BD089585B5806185BD85B580624B
S113077085BD089505B406FC06C085B5806185BDB8
S113078085B58F7D85BD0895882321F0813009F4D6
S11307905CC00895862F90E08A30910508F0AFC0C0
S11307A0FC01E65DFF4F0C94D20583B78E7F83BFB7
S11307B083B78D7F83BF83B78B7F83BF089583B750
S11307C0816083BF83B78D7F83BF83B78B7F83BFF4
S11307D0089583B78E7F83BF83B7826083BF83B757
S11307E08B7F83BF089583B7816083BF83B78260A3
S11307F083BF83B78B7F83BF089583B78E7F83BF07
S113080083B78D7F83BF83B7846083BF089583B725
S1130810816083BF83B78D7F83BF83B7846083BFC9
S1130820089583B78E7F83BF83B7826083BF83B706
S1130830846083BF089583B7816083BF83B7826078
S113084083BF83B7846083BF0895862F90E0883088
S1130850910508F054C0FC01EC5CFF4F0C94D205E8
S113086085B58E7F85BD85B58D7F85BD85B58B7F2F
S113087085BD089585B5816085BD85B58D7F85BDB0
S113088085B58B7F85BD089585B58E7F85BD85B57E
S1130890826085BD85B58B7F85BD089585B58160F2
S11308A085BD85B5826085BD85B58B7F85BD089581
S11308B085B58E7F85BD85B58D7F85BD85B5846005
S11308C085BD089585B5816085BD85B58D7F85BD60
S11308D085B5846085BD089585B58E7F85BD85B554
S11308E0826085BD85B5846085BD089585B58160C8
S11308F085BD85B5826085BD85B5846085BD089557
S11309001F93CF93DF93C82F142FD22F0E94240359
S1130910612F8C2F0E9471036D2F8C2F0E94C403B2
S1130920DF91CF911F910895882319F0813019F038
S1130930089562BF089564BD0895882319F0813035
S113094019F0089513BE089515BC08951F920F92CF
S11309500FB60F9211242F933F934F935F936F938E
S11309607F938F939F93AF93BF93EF93FF93E09104
S11309709200F09193000995FF91EF91BF91AF918F
S11309809F918F917F916F915F914F913F912F91A3
S11309900F900FBE0F901F9018951F920F920FB6D5
S11309A00F9211242F933F934F935F936F937F93F1
S11309B08F939F93AF93BF93EF93FF93E091900036
S11309C0F09191000995FF91EF91BF91AF919F91A3
S11309D08F917F916F915F914F913F912F910F90E4
S11309E00FBE0F901F9018951F920F920FB60F9283
S11309F011242F933F934F935F936F937F938F9320
S1130A009F93AF93BF93EF93FF93E0918E00F09188
S1130A108F000995FF91EF91BF91AF919F918F91B5
S1130A207F916F915F914F913F912F910F900FBEE6
S1130A300F901F9018951F920F920FB60F921124CA
S1130A402F933F934F935F936F937F938F939F93D2
S1130A50AF93BF93EF93FF93E0919400F0919500CF
S1130A600995FF91EF91BF91AF919F918F917F91E4
S1130A706F915F914F913F912F910F900FBE0F9007
S1130A801F9018951F920F920FB60F9211242F9357
S1130A903F934F935F936F937F938F939F93AF9302
S1130AA0BF93EF93FF93E0919600F091970009951F
S1130AB0FF91EF91BF91AF919F918F917F916F9132
S1130AC05F914F913F912F910F900FBE0F901F9008
S1130AD018950E9428020E94620080E00E940D0383
S1130AE000E010E0C0E0D1E00E942003482F50E075
S1130AF047305105C8F7FA01E45CFF4F0C94D20566
S1130B006D2F8C2F0E941B01EFCF6C2F8C2F0E9416
S1130B101B01EACF6D2F8D2F0E941B01E5CF6C2F97
S1130B208D2F0E941B01E0CF01110AC08EE10E94AB
S1130B3083008EE10E9487000E9469001D2FD4CF9C
S1130B40013091F60E948B000C2FCECF11110AC0F8
S1130B508EE10E9483008EE10E9487000E9476004D
S1130B600D2FC2CF113009F0BFCF0E948B001C2F74
S1130B70BBCF0E948B000C2F1C2FB6CF97FB072EE8
S1130B8016F4009407D077FD09D00E94D80507FC1D
S1130B9005D03EF4909581959F4F08957095619589
S1130BA07F4F0895EE0FFF1F0590F491E02D0994F7
S1130BB0AA1BBB1B51E107C0AA1FBB1FA617B7077F
S1130BC010F0A61BB70B881F991F5A95A9F780959B
S10F0BD09095BC01CD010895F894FFCF6E
S1130BDC02000100020201010002000001000200F7
S1130BEC01010002000201000200030100020103E2
S1110BFC0100020307010002030200020100CF
S9030000FC
