S01400005265636569766572204543552E73726563DE
S11300000C9431000C944E000C944E000C944E0051
S11300100C9497030C94BE030C944E000C944E0065
S11300200C944E000C9470030C9422030C9449031A
S11300300C944E000C944E000C944E000C944E0004
S11300400C944E000C944E000C944E000C944E00F4
S11300500C944E005E050D0514051B0522052905AB
S1130060430511241FBECFE5D8E0DEBFCDBF10E0AD
S1130070A0E6B0E0EEE3FBE002C005900D92AE3FD7
S1130080B107D9F721E0AEEFB0E001C01D92A8306E
S1130090B207E1F70E94E6040C949D050C9400005D
S11300A0EF92FF920F931F93CF93DF93CDB7DEB7F9
S11300B02B970FB6F894DEBF0FBECDBF80E8082F94
S11300C08B8385E28C831D821E82EE24E3946894E4
S11300D0FF24F1F815E220E030E043E050E060E076
S11300E070E080E00E94E5032B960FB6F894DEBF23
S11300F00FBECDBFDF91CF911F910F91FF90EF9075
S113010008950E94E204089541E060E083E30E94C0
S1130110D8028FE097E20197F1F700C0000040E0B9
S113012060E083E30E94D8028FE097E20197F1F741
S113013000C000000895682F89E30E94F90240E09E
S113014062E083E30E94D8020E948400089541E0A3
S113015062E083E30E94AC0241E061E083E30E9439
S1130160AC0240E061E083E30E94D80241E060E039
S113017083E30E94AC0261E089E30E94CD0288E33C
S11301800E949B008FE00E949B0081E00E949B00E4
S11301908FE39CE90197F1F700C000000895682FF0
S11301A089E30E94F90241E062E083E30E94D802FD
S11301B00E94840008951F93CF93DF93EC018881FC
S11301C0882351F010E00E94CF001F5FFE01E10F71
S11301D0F11D80818111F7CFDF91CF911F91089597
S11301E081E00E949B00089580EC0E949B0008958A
S11301F090E0FC01EE0FFF1FEE0FFF1FE80FF91F49
S1130200E05AFF4F8081813021F130F08230F1F1EA
S1130210833009F458C00895828181110DC02AB336
S113022081E090E0018002C0880F991F0A94E2F7F0
S1130230809582238ABB08954AB321E030E0C90146
S1130240018002C0880F991F0A94E2F7842B8ABBAD
S11302500895828181110DC027B381E090E001806F
S113026002C0880F991F0A94E2F78095822387BB06
S1130270089547B321E030E0C901018002C0880F2E
S1130280991F0A94E2F7842B87BB08958281811118
S11302900DC024B381E090E0018002C0880F991F53
S11302A00A94E2F78095822384BB089544B321E045
S11302B030E0C901018002C0880F991F0A94E2F757
S11302C0842B84BB0895828181110EC041B321E047
S11302D030E0C901018002C0880F991F0A94E2F737
S11302E08095842381BB089541B321E030E0C901A6
S11302F0018002C0880F991F0A94E2F7842B81BB06
S1130300089590E0FC01EE0FFF1FEE0FFF1F8E0F0C
S11303109F1FFC01E05AFF4F8081813019F130F0BA
S11303208230E1F1833009F455C00895613069F4F5
S11303304BB321E030E0C901018002C0880F991F4E
S11303400A94E2F7842B8BBB08952BB381E090E0F1
S1130350018002C0880F991F0A94E2F780958223D6
S11303608BBB0895613069F448B321E030E0C901E2
S1130370018002C0880F991F0A94E2F7842B88BB7E
S1130380089528B381E090E0018002C0880F991F8E
S11303900A94E2F78095822388BB0895613069F45A
S11303A045B321E030E0C901018002C0880F991FE4
S11303B00A94E2F7842B85BB089525B381E090E08D
S11303C0018002C0880F991F0A94E2F78095822366
S11303D085BB0895613069F442B321E030E0C9017E
S11303E0018002C0880F991F0A94E2F7842B82BB14
S11303F0089522B381E090E0018002C0880F991F24
S11304000A94E2F78095822382BB089590E0FC0170
S1130410EE0FFF1FEE0FFF1FE80FF91FE05AFF4F0B
S11304208081813021F130F08230F1F1833009F4A0
S113043058C008958481813069F44BB321E030E0E1
S1130440C901018002C0880F991F0A94E2F7842B26
S11304508BBB08952BB381E090E0018002C0880F2C
S1130460991F0A94E2F7809582238BBB08958481B7
S1130470813069F448B321E030E0C901018002C051
S1130480880F991F0A94E2F7842B88BB089528B338
S113049081E090E0018002C0880F991F0A94E2F77E
S11304A08095822388BB08958481813069F445B3A3
S11304B021E030E0C901018002C0880F991F0A942D
S11304C0E2F7842B85BB089525B381E090E0018099
S11304D002C0880F991F0A94E2F78095822385BB96
S11304E008958481813069F442B321E030E0C90188
S11304F0018002C0880F991F0A94E2F7842B82BB03
S1130500089522B381E090E0018002C0880F991F12
S11305100A94E2F78095822382BB08951F93CF93B8
S1130520DF93C3E6D0E010E0812F0E94F800FE01C3
S113053031978081813029F46881812F0E94810163
S113054003C0812F0E9406021F5F2596173061F7B2
S1130550DF91CF911F910895413079F4E82FF0E0B5
S1130560218181E090E0AC0102C0440F551F6A95DF
S1130570E2F7BA01622B61830895E82FF0E021814C
S113058081E090E0AC0102C0440F551F6A95E2F788
S1130590BA016095622361830895613029F4E82FDC
S11305A0F0E08FEF81830895E82FF0E01182089541
S11305B0413079F4E82FF0E0228181E090E0AC0151
S11305C002C0440F551F6A95E2F7BA01622B628399
S11305D00895E82FF0E0228181E090E0AC0102C0B0
S11305E0440F551F6A95E2F7BA016095622362834E
S11305F00895E82FF0E062830895882361F0813044
S113060089F4BC9ABD9ABF9ABE986C9A699A6E9AFC
S11306106F9A6D9A0895BC98BD98BF98BE9A6C98CD
S11306206E9A6F9A0895CF93C82F60E084E00E9479
S11306308101CFB9779BFECF61E084E00E94810104
S1130640CF9108951F920F920FB60F9211242F93FA
S11306503F934F935F936F937F938F939F93AF9346
S1130660BF93EF93FF93E0910201F0910301099589
S1130670FF91EF91BF91AF919F918F917F916F9176
S11306805F914F913F912F910F900FBE0F901F904C
S113069018951F920F920FB60F9211242F933F9328
S11306A04F935F936F937F938F939F93AF93BF9376
S11306B0EF93FF93E0910001F09101010995FF91FF
S11306C0EF91BF91AF919F918F917F916F915F91C6
S11306D04F913F912F910F900FBE0F901F9018953F
S11306E01F920F920FB60F9211242F933F934F93A3
S11306F05F936F937F938F939F93AF93BF93EF9386
S1130700FF93E091FE00F091FF000995FF91EF91B6
S1130710BF91AF919F918F917F916F915F914F9115
S11307203F912F910F900FBE0F901F9018951F921D
S11307300F920FB60F9211242F933F934F935F9311
S11307406F937F938F939F93AF93BF93EF93FF9395
S1130750E0910401F09105010995FF91EF91BF919A
S1130760AF919F918F917F916F915F914F913F9145
S11307702F910F900FBE0F901F9018951F920F92FC
S11307800FB60F9211242F933F934F935F936F9360
S11307907F938F939F93AF93BF93EF93FF93E091D6
S11307A00601F09107010995FF91EF91BF91AF9177
S11307B09F918F917F916F915F914F913F912F9175
S11307C00F900FBE0F901F901895EF92FF920F930A
S11307D01F93CF93DF93CDB7DEB72B970FB6F89463
S11307E0DEBF0FBECDBFE982FA820B831C832D834B
S11307F03E834F83588769877A878B8782E0E81224
S113080002C028E001C020E180B58F7780BD30E0D0
S113081040E050E060E472E48FE090E00E947505EF
S1130820CA01B9012B813C814D815E810E9475050D
S11308302150310929B930BD80B58F7780BD81E061
S1130840E81659F0E81620F082E0E81659F00EC0D8
S113085080B5806480BD599809C080B58F7B80BD08
S1130860599804C080B58F7B80BD599A8A818130A4
S113087031F018F0823029F007C0539A06C0549A18
S113088004C0539A549A01C0539A8F818230D9F08C
S113089028F4882341F0813071F02DC08330D9F0E1
S11308A0843009F128C0529880B58B7F80BD80B513
S11308B08D7F80BD27C0529880B58B7F80BD80B569
S11308C0826080BD1FC0529880B5846080BD80B5B1
S11308D08D7F80BD17C0529880B5846080BD80B57F
S11308E0826080BD0FC0529A80B5846080BD80B59F
S11308F0826080BD07C0529880B5846080BD80B599
S1130900826080BD8885813059F018F0823079F09A
S113091015C080B58F7D80BD80B58F7E80BD14C02D
S113092080B5806280BD80B58F7E80BD0DC080B5EE
S1130930806280BD80B5806180BD06C080B58F7D3A
S113094080BD80B58F7E80BD8985882319F0813074
S113095029F008C080B5877F80BD07C080B5886056
S113096080BD03C080B5877F80BD8A85882331F030
S1130970813041F480B5816080BD07C080B58E7F31
S113098080BD03C080B58E7F80BD8B85813031F002
S113099018F0823029F006C0579A07C0569A05C04D
S11309A0559A03C05798569A559A2B960FB6F894B1
S11309B0DEBF0FBECDBFDF91CF911F910F91FF908E
S11309C0EF9008955F9BFECF8CB108950E94A7001D
S11309D00E948E020E94500081E00E94FD0210E0FD
S11309E0D0E000E0FF24F39402C0102FD02F0E9427
S11309F08100C82F8FE39CE90197F1F700C0000044
S1130A008C2F0E9413038C2F90E08730910578F788
S1130A10FC01E65DFF4F0C9497050E94F00083E80B
S1130A2090E00E94DB00E3CF0E94F0008CE890E0AD
S1130A300E94DB00DCCF0E94F00086E990E00E9477
S1130A40DB00D5CF0E94F0008FE990E00E94DB002C
S1130A50CECF111108C00E94F00089EA90E00E94F4
S1130A60DB00DF2DC4CF113011F60E94F00088EBBB
S1130A7090E00E94DB000E94F40086EC90E00E946B
S1130A80DB00102FB4CFD11108C00E94F00082ED1A
S1130A9090E00E94DB001F2DAACFD13009F0A7CF30
S1130AA00E94F00088EB90E00E94DB000E94F400BA
S1130AB086EC90E00E94DB00D02F99CFD13049F42E
S1130AC00E94F00081EE90E00E94DB00102FD02FF6
S1130AD08ECF113009F089CF0E94F0008FEE90E0A4
S1130AE00E94DB00102FD02F82CFA1E21A2EAA1B66
S1130AF0BB1BFD010DC0AA1FBB1FEE1FFF1FA217CA
S1130B00B307E407F50720F0A21BB30BE40BF50BC6
S1130B10661F771F881F991F1A9469F7609570954F
S1130B20809590959B01AC01BD01CF010895EE0F16
S1110B30FF1F0590F491E02D0994F894FFCF77
S1130B3E0000010002000101000201000100020197
S1130B4E010100020100010102000000000000008A
S1130B5E0000004C45442031204F4E004C454420AB
S1130B6E31204F4646004C45442032204F4E004C17
S1130B7E45442032204F46460057696E646F7720F5
S1130B8E4F70656E696E67004D6F746F722053748B
S1130B9E6F7070656400507265737320616761696C
S1130BAE6E0057696E646F7720436C6F73696E675E
S1130BBE0057696E646F77204F70656E65640057D9
S1110BCE696E646F7720436C6F73656400007A
S9030000FC
